:020000022000DC
:10000000FDC0000020C100001EC100001CC1000096
:100010001AC1000018C1000016C1000014C1000080
:1000200012C1000010C100000EC100000CC1000090
:100030000AC1000008C100005BC7000004C1000045
:1000400002C1000000C10000FEC00000FCC00000B2
:10005000FAC00000F8C00000F6C00000F4C00000C4
:10006000F2C00000F0C00000EEC00000ECC00000D4
:10007000EAC00000E8C00000E6C00000E4C00000E4
:10008000E2C00000E0C00000DEC00000DCC00000F4
:10009000DAC00000D8C00000D6C00000D4C0000004
:1000A000D2C00000D0C00000CEC00000CCC0000014
:1000B000CAC00000C8C00000C6C00000C4C0000024
:1000C000C2C00000C0C00000BEC00000BCC0000034
:1000D000BAC00000B8C00000B6C00000B4C0000044
:1000E000B2C00000B0C000006AC70000B0C7000086
:1000F000AAC00000A8C00000A6C00000A4C0000064
:10010000A2C00000A0C000009EC000009CC0000073
:100110009AC0000098C0000096C0000094C0000083
:1001200092C0000090C000008EC000008CC0000093
:100130008AC0000088C0000086C0000084C00000A3
:1001400082C0000080C000007EC000007CC00000B3
:100150007AC0000078C0000076C0000074C00000C3
:1001600072C0000070C000006EC000006CC00000D3
:100170006AC0000068C0000066C0000064C00000E3
:1001800062C0000060C000005EC000005CC00000F3
:100190005AC0000058C0000056C0000054C0000003
:1001A00052C0000050C000004EC000004CC0000013
:1001B0004AC0000048C0000046C0000044C0000023
:1001C00042C0000040C000003EC000003CC0000033
:1001D0003AC0000038C0000036C0000034C0000043
:1001E00032C0000030C000002EC000002CC0000053
:1001F0002AC000000D94820E26C0000011241FBEEC
:10020000CFEFCDBFDFE3DEBF01E00CBF18BE19BEEC
:100210001ABE1BBE11E2A0E0B0E2E4EFFDE102E095
:100220000BBF02C007900D92A037B107D9F71BBED4
:1002300026E2A0E7B1E201C01D92A53BB207E1F7BB
:100240005AD30D94F80EDCCE3BB78BBFFB018691E1
:100250003BBF08953BB78BBFFB01879196913BBF96
:10026000089542E08CC041E08AC08093C001882795
:100270008093C1018093C20147E071D0CB01089502
:100280008093C40148E06BC08091D00108953BB7D2
:1002900048E17AC03BB74AE177C03BB78827992746
:1002A0008BBF40E271C03BB78BBFCB0142E26CC059
:1002B0003BB70B0143E268C0EE27FF2719BEDC0104
:1002C00043E24093CA0150E82DE90D901D90209320
:1002D0003400E89532965A95C1F7112408953BB73A
:1002E0006BBFFA0119BEDC0140E04093CA0150E047
:1002F000879197918D939D935A95D1F73BBF089520
:100300003BB78BBFCB0144E23FC03BB78BBFCB01B8
:1003100045E23AC03BB746E237C03BB78BBFCB01A3
:100320004AE232C03BB78BBFCB014CE22DC03BB79A
:100330008BBFCB014DE228C048E311C049E30FC099
:1003400028ED2093340021E02093CC0108952091E2
:10035000CF0127FDFCCF22272093CA0108954093A7
:10036000CA0128ED31E0209334003093CB01609135
:10037000C4017091C5018091C60199270895FC01BF
:100380004093CA0184910895FC014093CA012DE96C
:1003900020933400E89511243BBF0895292F33277B
:1003A0002230310561F02330310571F02130310503
:1003B00009F040C082E190E026E531E23FC083E8E9
:1003C00090E023ED30E23AC099278230910511F197
:1003D00064F40097B9F0019769F5E3EBF0E2E4917A
:1003E0008E2F90E023EB30E229C083309105D1F0CD
:1003F000049701F5E7E3F0E2E4918E2F90E027E324
:1004000030E21CC0EFECF0E2E4918E2F90E02FEC94
:1004100030E214C0E7E8F0E2E4918E2F90E027E8A4
:1004200030E20CC0E3E6F0E2E4918E2F90E023E6A8
:1004300030E204C080E090E020E030E0FA01208368
:10044000318308958091CF0187FDFCCF0895CF932C
:10045000DF931F921F92CDB7DEB76A838983F2DFE5
:10046000898120E2829FC00111246A816F71862BED
:10047000E0ECF1E080839183128286E08287EF9343
:10048000FF930F932F93EBECF1E008ED21E004BF15
:1004900020832F910F91FF91EF9184810F900F9006
:1004A000DF91CF910895CEDF8091CF0181FF11C000
:1004B00086E38093CA01EF93FF930F932F93EBECA6
:1004C000F1E008ED21E004BF20832F910F91FF910F
:1004D000EF910895CF93DF9300D0CDB7DEB74B8374
:1004E0006A838983E0DFE0ECF1E093E3928789811E
:1004F00020E2829FC00111246A816F71862B808364
:10050000918312824B81448385E38287EF93FF932B
:100510000F932F93EBECF1E008ED21E004BF208373
:100520002F910F91FF91EF912396CDBFDEBFDF9109
:10053000CF910895CF93DF93EC0184DF83E3809321
:10054000CA011092C1011092C20190E09093C001C3
:1005500089918093C4019F5F9032C1F7DF91CF9161
:100560000895CF93DF931F92CDB7DEB789836ADFFB
:10057000898120E2829FC0011124E0ECF1E08083B8
:100580009183128285E38287EF93FF930F932F93DA
:10059000EBECF1E008ED21E004BF20832F910F91F7
:1005A000FF91EF910F90DF91CF9108954BDF80E3A2
:1005B0008093CA01EF93FF930F932F93EBECF1E03D
:1005C00008ED21E004BF20832F910F91FF91EF915F
:1005D0000895FC01A081B1816C9380819181019685
:1005E00080839183268137818217930721F4848148
:1005F0009581808391832FB7F894828593850196A6
:10060000828793872FBF0895FC01A281B3818D91CA
:10061000A283B38326813781A217B30721F42481F3
:100620003581228333839FB7F89422853385215007
:100630003109228733879FBF08958BE190E23CD632
:1006400097FD80E00895682F8BE190E26DC5F894E6
:1006500080917321863661F48091CC01886080930B
:10066000CC01F0DE1092001080E07BDF109273214D
:1006700088ED84BF1092A200109206081092000824
:100680001092A30A1092A40A1092A50A0F94100EB9
:100690000C94000008954F925F926F927F928F9218
:1006A0009F92AF92BF92CF92DF92EF92FF920F9301
:1006B0001F93CF93DF93CDB7DEB7C150D140CDBFED
:1006C000DEBF8C01262F653409F056C0ECDE809128
:1006D000CC01877F8093CC01CE0101967C016C0117
:1006E000812C912C54012801612C712C84149504C7
:1006F000A604B70450F4A1DFF60181936F01FFEF68
:100700008F1A9F0AAF0ABF0AF1CF812C912C540196
:1007100084149504A604B70408F0A9C08091782138
:1007200090917921A0917A21B0917B21F70141919B
:100730007F01682F6F7155E0B695A79597958795BE
:100740005A95D1F7C7DE8091782190917921A091B7
:100750007A21B0917B210196A11DB11D8093782152
:1007600090937921A0937A21B0937B21FFEF8F1A88
:100770009F0AAF0ABF0ACCCF663419F0653509F07D
:1007800078C0C0907821D0907921E0907A21F090C3
:100790007B21CC0CDD1CEE1CFF1CC0927821D0927A
:1007A0007921E0927A21F0927B21CF5FDE4F28837E
:1007B000C150D140CCDDCF5FDE4F2881C150D14048
:1007C000CF5FDE4F2883C150D14037DFA82EB12C38
:1007D00034DFB501782B809178219091792168DD03
:1007E000B6DD8091782190917921A0917A21B09104
:1007F0007B210296A11DB11D8093782190937921D0
:10080000A0937A21B0937B2102501109CF5FDE4F74
:100810002881C150D1400115110591F6263461F4AB
:1008200080917521882321F0C701B60169DD0AC0D6
:10083000C701B6016ADD06C0253521F428DD87DD54
:1008400029DD85DD84DD8091782190917921A09149
:100850007A21B0917B21B695A7959795879580933E
:10086000782190937921A0937A21B0937B218DE018
:1008700001C08FE3CF5FDE4FCDBFDEBFDF91CF91F1
:100880001F910F91FF90EF90DF90CF90BF90AF90AE
:100890009F908F907F906F905F904F900895E0EAC7
:1008A000FAE080EF878381E2868383818F7C806199
:1008B000838383818C7F8160838383E0858398E158
:1008C000948392E090932606E0E8F6E081838583A6
:1008D0008FE39FE10197F1F700C00000E0EEF7E041
:1008E00081E08683AFE3BFE11197F1F700C000001C
:1008F00085830D944B0EEF92FF920F931F93CF932E
:10090000DF931F92CDB7DEB780E1809355008091D1
:1009100050008061809350008091510084FFFCCF93
:100920008FB7F89494E028ED30E0A0E4B0E01BBE6F
:10093000FD0124BF90838FBF8FE39FE10197F1F703
:1009400000C0000080914000809150008260809340
:1009500050008091510081FFFCCF8091560084604F
:10096000809356008BE18093650087EB809366004F
:1009700012E01093CA01EDE1F0E0E491E09362002F
:10098000ECE1F0E0E491E09363001092CA0101E031
:100990000093600088ED84BF87E48093A2001093E9
:1009A000210680E880933106109326060093020604
:1009B00088E18093100688E08093810684E080932C
:1009C000820683E08093E1070093E6071093E50732
:1009D0008091CC0188608093CC0134DD809100103F
:1009E000809373218BE196E08093260890932708EB
:1009F000809106088C7F81608093060880910008B2
:100A0000807F876080930008E0E0F0E0859194911A
:100A10008091780080FF06C080917800816080938B
:100A2000780034C280917321863609F031C28091FA
:100A3000CC0188608093CC0105DD1092001080E02D
:100A400090DD10927321F89400933620E8E8F2E2EA
:100A50004FB7F89488E092E28083918382839383F6
:100A60008483958388E892E28683978320E830E048
:100A700020873187128613864FBFECEFF1E24FB724
:100A8000F8948CE791E280839183828393838483BB
:100A900095838CEF91E28683978320873187128636
:100AA00013864FBFFCDE78940093742108E611E2B0
:100AB000095F80913620882309F4E7C1BEDD898370
:100AC000882309F49CC1853431F48DE0BCDD3FDC22
:100AD0001092362094C1883721F482E08093250655
:100AE0008EC1893721F482E08093260688C184353F
:100AF00011F4A3DD58C0803509F455C08C3409F4D5
:100B000052C0843711F48AEF6AC0813611F489E546
:100B100075C18134B9F491DD182F8FDD212F30E0BC
:100B2000322F2227F901E82BCF01092E000CAA0B46
:100B3000BB0B8093782190937921A0937A21B09375
:100B40007B2131C0803711F483E558C1833559F4D6
:100B500058E6E52E51E2F52EF70181917F0173DD14
:100B60000E11FACF4CC1863521F481E36CDD80E3B0
:100B700045C1833731F486E466DD87E964DD8EE1C3
:100B80003DC1853659F4E3DB88DBE1DBCE0101961C
:100B9000D1DC0CDD81E08093752105C08C3629F411
:100BA000D6DB4BDD6DDB8DE029C1823719F4CFDB5D
:100BB0006BDB24C1863419F4CADB80E009C08E34B3
:100BC00019F4C5DB81E004C0813521F4C0DB82E08B
:100BD0004CDB14C1823631F489E535DD81E033DD4B
:100BE00080E00CC18234A1F428DD182F26DD212FEE
:100BF00030E0322F2227282B209376213093772143
:100C00001CDD682F809176219091772144DDF6C01C
:100C1000873609F0B0C011DD182F0FDD212F30E02D
:100C2000322F2227282B209376213093772105DD40
:100C3000182FE0907621F0907721853489F5809106
:100C4000CC01877F8093CC012EDC8091782190911C
:100C50007921A0917A21B0917B21682F6F7115E0E5
:100C6000B695A795979587951A95D1F7F0DBEBDCAC
:100C70008091782190917921A0917A21B0917B2166
:100C80000196A11DB11D8093782190937921A093A5
:100C90007A21B0937B21F1E0EF1AF108B1F6AFC0F1
:100CA000863429F0853519F0803509F0A8C0809187
:100CB000782190917921A0917A21B0917B21880FA0
:100CC000991FAA1FBB1F8093782190937921A0932D
:100CD0007A21B0937B21163451F460917821709180
:100CE000792180917A2190917B21AEDA0DC0153562
:100CF00031F48091782190917921B5DA05C01035D1
:100D000041F480917821ADDA90E080937621909340
:100D100077218091762197DC40917821509179213B
:100D200060917A2170917B214F5F5F4F6F4F7F4FB2
:100D3000409378215093792160937A2170937B219D
:100D400081E0E81AF1084115510591E06907710544
:100D500068F076956795579547954093782150931D
:100D6000792160937A2170937B2149C0E114F104C9
:100D700009F0B1CFEECF8434A9F45FDC482F809125
:100D8000782190917921A0917A21B0917B21682FCF
:100D90006F7135E0B695A795979587953A95D1F7F8
:100DA00099DB15C0843639F58091782190917921AD
:100DB000A0917A21B0917B21682F6F7125E0B695C3
:100DC000A795979587952A95D1F741DB3CDC8091D3
:100DD000782190917921A0917A21B0917B2101967F
:100DE000A11DB11D8093782190937921A0937A2140
:100DF000B0937B2104C08B3111F08FE324DC8BE1B5
:100E000090E2F7D180E090E210D27C01E114F1048D
:100E100051F42FB7F89480910622909107222FBFAA
:100E20000097C1F42DC08FB7F89420919222309191
:100E300093228FBFE1E0EE1AF10880919022909109
:100E400091222817390729F3FBD4682F88E892E20A
:100E5000C0DBDCCF8034910510F08FE390E0182FD9
:100E6000E091FE21F091FF21608180E090E25CD171
:100E70001150811105C08CEF91E2C6DB1111F0CF4A
:100E800080E090E2B6D127D414CE61DAE0DB25C051
:100E90008091780081FF21C0109325068091780011
:100EA000826080937800789480917321863669F00F
:100EB0008091CC0188608093CC01C4DA16E610934F
:100EC000001080E04EDB109373218091712190918E
:100ED00072214097D0F310923620B9DB80E090E089
:100EE0000F90DF91CF911F910F91FF90EF90089598
:100EF0001F920F920FB60F92112408B60F9218BED0
:100F00008F939F938091712190917221019680938C
:100F100071219093722180917421882399F080919E
:100F200070218F5F8093702192E0813011F08430C6
:100F300019F49093250602C090932606843110F090
:100F4000109270219F918F910F9008BE0F900FBE4D
:100F50000F901F901895089508958BE190E2BFD0EF
:100F600080E090E2BCC08BE190E2F9D180E090E2B9
:100F7000F6C18050904209F5809110209091112087
:100F8000837099270397C9F483E08093810682E0F8
:100F90008093860681E080938506EFE3FFE1319739
:100FA000F1F700C000008093E607EFE3FFE131971F
:100FB000F1F700C000008093E507089508951F929F
:100FC0000F920FB60F92112408B60F9218BE09B6F1
:100FD0000F9219BE0BB60F921BBE2F933F934F93E8
:100FE0005F936F937F938F939F93AF93BF93EF9391
:100FF000FF936091A00A80919822843089F48FB782
:10100000F89420910622309107228FBF809104220C
:10101000909105222817390719F08CEF91E2D9DA5F
:10102000FF91EF91BF91AF919F918F917F916F91C0
:101030005F914F913F912F910F900BBE0F9009BE82
:101040000F9008BE0F900FBE0F901F9018951F9223
:101050000F920FB60F92112408B60F9218BE09B660
:101060000F9219BE0BB60F921BBE2F933F934F9357
:101070005F936F937F938F939F93AF93BF93EF9300
:10108000FF938091A10A85FF13C02FB7F894809138
:101090009222909193222FBF892B51F088E892E2FF
:1010A000B3DA9091A10A95FFFCCF8093A00AE9CF13
:1010B000FF91EF91BF91AF919F918F917F916F9130
:1010C0005F914F913F912F910F900BBE0F9009BEF2
:1010D0000F9008BE0F900FBE0F901F901895CF93E2
:1010E000DF93EC01FC0170968BE0DF011D928A9585
:1010F000E9F782E08C83898783E08E8761E0CE0107
:101100000196B7D4882361F061E0CE010696B1D490
:10111000882331F061E0CE010B96DF91CF91A9C415
:1011200080E0DF91CF910895CF93FC0180919822C8
:10113000843001F584899589A689B789892B8A2B02
:101140008B2BC1F0C62F81819BD32091A12230919E
:10115000A222F901EF5BFF4F9081319780819817B0
:1011600020F48C2F7DD380E006C042D317D588238E
:10117000C1F301C082E0CF910895CF93DF93209116
:101180009822243091F5FC01448955896689778934
:10119000452B462B472B49F1818172D38091A522A3
:1011A0002091A1223091A222F90187FF05C0EF5BB7
:1011B000FF4F808190E008C0E05CFF4F8081319656
:1011C000408190E0841B9109892B69F0F901EF5B64
:1011D000FF4FD0813197C0810BD3DC1720F0DED4D4
:1011E000811104C005D380E001C082E0DF91CF917E
:1011F0000895CF93DF9320919822243099F4FC0135
:101200004489558966897789452B462B472B51F0B0
:10121000EC01818135D369D3882321F0CE01DF91A0
:10122000CF91ABCFDF91CF910895CF93DF932091F2
:101230009822243019F0C0E0D0E03AC0FC01448983
:10124000558966897789452B462B472BA1F38681E3
:1012500017D357D3882379F32091A5228091A12217
:101260009091A222FC0127FF05C0EF5BFF4FC081D8
:10127000D0E008C0E05CFF4FC08131962081D0E013
:10128000C21BD109209711F4CCD212C02091A52203
:10129000FC0127FF05C0EF5BFF4FC081D0E008C015
:1012A000E05CFF4FC08131968081D0E0C81BD1093E
:1012B000CE01DF91CF910895CF93DF9320919822B3
:1012C000243019F08FEF9FEF46C0FC014489558907
:1012D00066897789452B462B472BA1F38681D0D28F
:1012E00010D3882379F38091A5222091A1223091F7
:1012F000A222F90187FF05C0EF5BFF4F808190E0DC
:1013000008C0E05CFF4F80813196208190E0821B15
:101310009109892B21F094D2C82FD0E002C0CFEFE1
:10132000DFEF2091A5228091A1229091A222FC01C1
:1013300027FF05C0EF5BFF4F208130E008C0E05C75
:10134000FF4F20813196808130E0281B3109232B0B
:1013500009F467D2CE01DF91CF9108950895FF92ED
:101360000F931F93CF93DF93EC01E5D2882309F409
:101370008EC0888190E020919D2230919E22281776
:10138000390709F084C080919A22813259F018F40B
:10139000803249F17CC0823209F457C0833209F4AB
:1013A00067C075C080919922813A09F070C0DDD282
:1013B0009CD28823E9F38C89FD880E891F8950D23D
:1013C0008F2D4ED2802F4CD2812F4AD2888D48D279
:1013D000898D46D28A8D44D20BD2DF91CF911F9155
:1013E0000F91FF90C5C380919922813209F04FC0BF
:1013F000BCD287D2811105C0809198228111F9CF8A
:1014000046C01ED2082F1CD2182F1AD2F82E18D27E
:101410004F2D50E060E070E0BA0155274427782B4B
:10142000402B512B4C8B5D8B6E8B7F8B09D2888F21
:1014300007D2898F05D28A8FF4D19AD3CE01DF915A
:10144000CF911F910F91FF90B9CD80919922813258
:10145000F1F48BD28DD380919B2290919C22888B2A
:10146000998BCE01DF91CF911F910F91FF9081CD8C
:1014700080919922813259F478D27AD360919B225B
:10148000CE01DF91CF911F910F91FF9067CFDF9138
:10149000CF911F910F91FF900895FF920F931F938B
:1014A000CF93DF93CDB7DEB7EA97CDBFDEBF09E9B3
:1014B00012E288E0F82EF00EC3D1F80181938F017B
:1014C000FE12FACF50DD37D2882309F4F5C080919F
:1014D000992290919A22953009F46FC030F491309E
:1014E00069F168F0933051F1E7C0983009F4C1C058
:1014F000993009F4C7C0963009F0DEC072C0803858
:1015000091F0823809F0D8C080919D228F70B8D1B7
:10151000E091A322F091A422118112FB112710F96E
:1015200080E0AED106C01091952280919622811163
:1015300012601BD2812F94D180E0A0C0282F2D7F74
:1015400009F0BAC0882319F0823061F0B5C08091EB
:101550009B22813009F0B0C0933009F080E0809385
:10156000962227C080919B22811123C0E0919D2269
:101570001E2F1F7009F4A0C0812F82D180919A2262
:10158000833011F41ED215C0E091A322F091A42261
:1015900081818B7F818324E8129FF0011124E9511E
:1015A000FD4D1082E091A322F091A42280818E7FD4
:1015B000808380E065D1D9D163C081117DC0109155
:1015C0009B221F77D2D1D4D290D18823E9F31093F4
:1015D000C304111102C082E001C083E0809398220D
:1015E0006BC08058823008F067C080919B22909138
:1015F0009C228C3DE3E09E0759F583E08A838AE3D1
:1016000089834FB7F894DE01139620E038E052E06A
:101610005093CA01E32FF0E0E4911092CA0120FF39
:1016200003C0E295EF703F5FEF708E2F90E0EA30DD
:1016300010F0C79601C0C0968D939D932F5F2C31FB
:1016400039F74FBF92D16AE370E0CE0101960EC028
:10165000AE014F5F5F4F60919D220F94CE018C01D0
:10166000892B51F182D1B80189819A8145D0D9D095
:1016700023C0803809F579D180919422F1D0B8D077
:1016800077D21AC0811118C080919B228230A0F4B9
:101690006CD180919B22809394226AD28091942273
:1016A000811106C08091C304811102C081E001C094
:1016B00084E08093982251DC3ED1882311F055D1EB
:1016C00080D1EA96CDBFDEBFDF91CF911F910F9100
:1016D000FF9008950895CF9380919822882351F028
:1016E000C091A52280E0CCD026D18111D6DE8C2FEE
:1016F000CF91C6C0CF910895DF92EF92FF920F93E2
:101700001F93CF93DF93D82FC92F8B018091A522F0
:101710008068B6D020919F223091A02220173107F7
:1017200028F00115110519F463D001C08901ED2ECF
:10173000FC2ED12C0115110509F440C0809198228E
:10174000811102C082E04CC0853011F483E048C0B2
:10175000F2D0882311F081E043C0D3D081113CC086
:10176000C4D0882339F32091A5228091A1229091A1
:10177000A222FC0127FF05C0EF5BFF4FC081D0E034
:1017800013C0E05CFF4FC08131968081D0E0C81B60
:10179000D1090AC0C830D10550F4F70181917F0109
:1017A0005FD00150110921960115110599F7DD242B
:1017B000D394289709F0D12C1BD0BCCFD110BECF29
:1017C0000BC080919822882309F4BCCF853009F49E
:1017D000BDCFB1D08111BFCF94D0882391F380E0E9
:1017E000DF91CF911F910F91FF90EF90DF900895BF
:1017F000E091A322F091A422A091A122B091A22273
:10180000AF5BBF4F8C9190E08283938380818D7911
:101810008083E091A122F091A222EF5BFF4F108222
:101820000895E091A322F091A42280818D79808394
:10183000E091A122F091A222EF5BFF4F1082089568
:101840008091A1229091A222FC01EF5BFF4F2081A9
:1018500031E0320F3083FC01E20FF11D80810895E9
:101860002091A1223091A222F901EF5BFF4F9081DC
:1018700041E0490F4083F901E90FF11D808308958C
:101880008093A522482F4F7050E06091C60470915C
:10189000C7049A0194E0220F331F9A95E1F7E4E818
:1018A00087FF11C0E49FC001E59F900D112488516E
:1018B0009D4D8093A1229093A222C90108969B017D
:1018C000280F391F0DC0E49FC001E59F900D112422
:1018D0008A559D4D8093A1229093A222260F371FF7
:1018E0002093A3223093A42208958091A52280689A
:1018F000C7DFE091A322F091A422808186958170B8
:1019000008958091A5228F77BBDFA091A322B0918B
:10191000A4228C9185FF0DC0E091A122F091A2221A
:1019200012968D919C911397E05CFF4F808381E02C
:10193000089580E008958091A5228F77A1DFA0917E
:10194000A322B091A4228C9184FF0DC0E091A1222A
:10195000F091A22212968D919C911397E05CFF4F1B
:10196000808381E0089580E008958091A5228F779B
:1019700087DFE091A322F091A42280818D7880837B
:10198000E091A322F091A422808181608083E09184
:10199000A122F091A222EF5BFF4F10828091A5223D
:1019A00080686EDFE091A322F091A42280818160A3
:1019B0008083E091A122F091A222EF5BFF4F108281
:1019C0000895E091A322F091A42281818460818313
:1019D000E091A322F091A4228181807C803459F48B
:1019E0008091A52280584CDFE091A322F091A4229F
:1019F00081818460818308951F93CF93DF931F9229
:101A00001F92CDB7DEB7182F4A83698339DFE09183
:101A1000A322F091A4221182E091A322F091A422AA
:101A2000812F881F8827881F880F8083E091A32239
:101A3000F091A42269816183E091A322F091A42214
:101A4000128213822091A1223091A2222483358315
:101A5000110F110B4A814123F901E05CFF4F4083D4
:101A60003196108281E00F900F90DF91CF911F91FE
:101A70000895AF92BF92CF92DF92EF92FF920F93B1
:101A80001F93CF93DF93A62E8C017C0184E0E80E98
:101A9000F11CB12CBA1409F443C0F801D081DD2344
:101AA000C1F1C180D280F70131978081F701908127
:101AB000923010F498E001C098E128E030E0C0E0F6
:101AC0002C153D0520F4CF5F220F331FF9CFC92B12
:101AD0009D2F9F70973010F080E023C0CF7EF1E4FF
:101AE000CF16D104C8F7882321F0813021F4C06CCF
:101AF0000AC0C06403C0C068811105C04C2D6C2FA2
:101B000080E88D0F79DF4C2D6C2F8D2F75DF8823AA
:101B100019F3B3940B5F1F4F85E0E80EF11CBACFA9
:101B200081E0DF91CF911F910F91FF90EF90DF90B7
:101B3000CF90BF90AF90089580E090E0E091C60410
:101B4000F091C7049C0144E0220F331F4A95E1F74E
:101B5000E20FF31F11864091C6045091C704FA01A9
:101B6000E20FF31F118201968730910539F708952E
:101B70008091992287FF0DC0C4DE811105C080913C
:101B800098228111F9CF09C04CCE809198228823E8
:101B900021F0ABDE8823C9F32BCE08950F931F935A
:101BA000CF93E091C604F091C704E059FF4F008144
:101BB0001181C4E68091A52287FF0AC096DE8111BB
:101BC00005C080919822811105C021C080E024C009
:101BD00098DEF5CF8530E9F0E091A322F091A422C0
:101BE000818182FD18C0E091C604F091C704E059DC
:101BF000FF4F8081918180179107E1F22FEF2C0F29
:101C0000CC2319F08C01C22FD5CF84E005C082E02F
:101C100003C083E001C081E0CF911F910F9108952F
:101C200064D06AD0E0ECF4E081818E7F8183808192
:101C30008F778083109297220895CF93DF93E0E40B
:101C4000F0E014828481836084834FD055D0C0EC4F
:101C5000D4E088818F778883888180688883109218
:101C600098221092942210929622109295228881A6
:101C70008064888348E068E480E8BEDE48E068E489
:101C800080E0BADE88858064888789818160898365
:101C9000DF91CF910895CF93DF932FB7F894C0ECE5
:101CA000D1E082E08A87EAE1F0E0E491A0ECB4E0E0
:101CB000DA96EC93DA97EBE1F0E0E491DB96EC93C3
:101CC000DB971A8683E496E28E7F16968D939C931B
:101CD000179786E18C9383E018968C932FBF81E051
:101CE00080939722DF91CF91A8CFE0ECF4E080853C
:101CF0008370808711860895E0ECF4E08FEF82878F
:101D0000848708951F920F920FB60F92112408B680
:101D10000F9218BE09B60F9219BE0BB60F921BBEDA
:101D20002F933F934F935F936F937F938F939F93E3
:101D3000AF93BF93EF93FF938091CA0487FF08C0CE
:101D40008091C80487FF04C080E88093CA04C2DC85
:101D50008091CA0486FF06C080E48093CA04109272
:101D60009822FAD88091CA0485FF13C080E280933C
:101D7000CA0480919422882311F084E007C08091E6
:101D8000C304811102C081E001C083E080939822E6
:101D9000E2D88091CA0484FF14C080E18093CA0411
:101DA00082E080939822109294221092C304C4DEA1
:101DB00048E068E480E820DE48E068E480E01CDE7B
:101DC00089DCFF91EF91BF91AF919F918F917F91AE
:101DD0006F915F914F913F912F910F900BBE0F909C
:101DE00009BE0F9008BE0F900FBE0F901F90189560
:041DF000F894FFCF95
:101DF4000284400000010540000001860800000143
:101E0400000000000000000000000000814000000D
:101E140001024000000183080000010000000000EE
:101E2400000000000000012A0351007500610072E7
:101E3400006B0020004F006E006500200045005339
:101E44000050002000530065007200690061006CBE
:101E5400000000220351007500610072006B002035
:101E6400004F006E00650020005300650072006999
:101E74000061006C0000002A0351007500610072CB
:101E8400006B0020004F006E006500200042006FD0
:101E9400006F0074006C006F0061006400650072E4
:101EA4000000001A034D0061006E004300610076DB
:101EB40000650020004D006100640065000000041E
:101EC40003090409028300040100C0FA080B00029C
:101ED40002020100090400000102020103052400BA
:101EE40010010424020605240600010705830308E3
:101EF40000FF09040100020A000000070502024075
:101F0400000507058102400005080B0202020201D8
:101F14000009040200010202010405240010010466
:101F24002402060524060203070586030800FF09A8
:101F3400040300020A00000007050502400005072B
:101F440005840240000512011001EF020108501D32
:101F5400EB6001000102DC01514F555342424C0039
:0400000320000000D9
:00000001FF
